S00B000041706D2E73726563FB
S11300000C9457010C9474010C9439040C947401ED
S11300100C9474010C9474010C9474010C94740188
S11300200C9474010C9474010C9474010C94740178
S11300300C9474010C9474010C9453050C94740185
S11300400C9474010C9474010C946C020C9474015F
S11300500C9474010C9476010C9474010C94740146
S11300600C9474010C947401F402FD02FD02CC02A0
S1130070E002FD02FD029002FD02FD02FD02FD020E
S1130080A402FD02FD02FD02FD02FD02B802FD0212
S1130090FD02FD02FD02FD02FD02FD02FD02FD0264
S11300A0FD02FD02FD02FD02EA02FD02FD02C202A2
S11300B0D602FD02FD028602FD02FD02FD02FD02E2
S11300C09A02FD02FD02FD02FD02FD02AE020000E5
S11300D000000000005F00000007000700147F1408
S11300E07F14242A7F2A1223130864623649552276
S11300F0500005030000001C2241000041221C00A6
S113010014083E081408083E08080050300000088F
S113011008080808006060000020100804023E512E
S113012049453E00427F40004261514946214145D4
S11301304B311814127F1027454545393C4A49492B
S11301403001710905033649494936064949291ED2
S11301500036360000005636000008142241001410
S113016014141414004122140802015109063249DE
S113017079413E7E1111117E7F494949363E414104
S113018041227F4141221C7F494949417F09090994
S1130190013E4149497A7F0808087F00417F4100B8
S11301A02040413F017F081422417F404040407F6E
S11301B0020C027F7F0408107F3E4141413E7F09CB
S11301C00909063E4151215E7F09192946464949DC
S11301D0493101017F01013F4040403F1F20402041
S11301E01F3F4038403F6314081463070870080732
S11301F06151494543007F41410002040810200039
S113020041417F000402010204404040404000019B
S113021002040020545454787F48444438384444F9
S11302204420384444487F3854545418087E090103
S1130230020C5252523E7F0804047800447D400070
S11302402040443D007F1028440000417F40007C52
S1130250041804787C0804047838444444387C1432
S1130260141408081414187C7C0804040848545412
S11302705420043F4440203C4040207C1C2040202B
S11302801C3C4030403C44281028440C5050503C06
S11302904464544C44000836410000007F000000D0
S11302A0413608001008081008000000000011245E
S11302B01FBECFEFD8E0DEBFCDBF11E0A0E0B1E0BC
S11302C0E0E1F8E102C005900D92AC39B107D9F72D
S11302D023E0ACE9B1E001C01D92AC39B207E1F70B
S11302E00E9489050C94060C0C9400001F920F9236
S11302F00FB60F921124CF92DF92EF92FF922F93B9
S11303003F934F935F936F937F938F939F93AF9399
S1130310BF93CF93DF93EF93FF93C0917800D09175
S11303207900D0939D01C0939C01C0900001D090AE
S11303300101E0900201F090030120E030E040E888
S11303405FE3C701B6010E94A60788230CF063C0CF
S1130350BE01DD0F880B990B0E9455086B017C01CF
S113036020E030EC4FE753E40E94A60788236CF4A6
S11303708DEC9CECACECBDE3809300019093010107
S1130380A0930201B093030183C020E030EC4FEF4F
S113039053E4C701B6010E94A60788236CF48DECD0
S11303A09CECACE4BEE38093000190930101A09324
S11303B00201B09303016CC020E030ED4FE354E43C
S11303C0C701B6010E94A60788236CF48AE999E95B
S11303D0A9E9BEE38093000190930101A093020177
S11303E0B093030155C020E030EC4FE754E4C7015B
S11303F0B6010E94A60788230CF04AC08DEC9CEC41
S1130400ACECBEE38093000190930101A093020140
S1130410B09303013DC020E030E040E050E4C70168
S1130420B6010E94050918169CF5BE01DD0F880B64
S1130430990B0E9455086B017C0120E030EC4FEFD2
S113044053E40E94A60788236CF480E090E0A0E4C3
S1130450B0E48093000190930101A0930201B09352
S1130460030116C020E030EC4FE754E4C701B601A5
S11304700E94A607882364F486E696E6A6E4B0E420
S11304808093000190930101A0930201B0930301B2
S1130490FF91EF91DF91CF91BF91AF919F918F9198
S11304A07F916F915F914F913F912F91FF90EF90CA
S11304B0DF90CF900F900FBE0F901F9018959093E0
S11304C0C5008093C40088E98093C1008EE08093C6
S11304D0C2008FEF87B908951F920F920FB60F9243
S11304E011248F939F93AF93BF93EF93FF93E09166
S11304F0C6008E2F90E0FC01E154F109E333F105CD
S113050008F07BC0EC5CFF4F0C9416098091060147
S113051090910701019790930701809306016DC0A4
S113052080910601909107010196909307018093B1
S1130530060163C080910401909105010197909395
S113054005018093040159C0809104019091050133
S1130550019690930501809304014FC08091A001FE
S11305609091A10101979093A1018093A00145C0AE
S11305708091A0019091A10101969093A101809393
S1130580A0013BC0809108019091090101979093CB
S113059009018093080131C08091080190910901FB
S11305A00196909309018093080127C080910A0164
S11305B090910B01019790930B0180930A011DC048
S11305C080910A0190910B01019690930B01809305
S11305D00A0113C080910C0190910D010197909331
S11305E00D0180930C0109C080910C0190910D01C3
S11305F0019690930D0180930C01FF91EF91BF91AF
S1130600AF919F918F910F900FBE0F901F901895EF
S1130610CF92DF92EF92FF920F931F93CF93DF93CA
S1130620CDB7DEB72C970FB6F894DEBF0FBECDBFA3
S11306300E941B06C0900001D0900101E0900201CD
S1130640F090030120E030E040E85FE3C701B60129
S11306500E94A60788230CF050C02DEC3CEC4CEC17
S11306605DE3C701B6010E94A60781110AC066E0D6
S113067084E00E941A0765E08EE091E00E9407077B
S1130680E7C02DEC3CEC4CE45EE3C701B6010E94EC
S1130690A60781110AC06AE083E00E941A0762E09B
S11306A082E191E00E940707D3C02AE939E949E9C8
S11306B05EE3C701B6010E94A60781110AC06AE081
S11306C08DE00E941A0761E08AE191E00E94070729
S11306D0BFC02DEC3CEC4CEC5EE3C701B6010E94BC
S11306E0A6078111B5C06AE082E00E941A0763E0A0
S11306F085E291E00E940707ABC020E030E040E8CB
S11307005FE3C701B6010E94A607811134C060E00F
S113071084E10E941A0761E08BE291E00E940707DE
S11307208091A1018F938091A0018F938091050105
S11307308F93809104018F93809107018F9380910F
S113074006018F9385E391E09F938F938E010F5F52
S11307501F4F1F930F930E941C0969E184E10E94BB
S11307601A0761E0C8010E9407070FB6F894DEBFBC
S11307700FBECDBF6DC020E030E040E050E4C701C3
S1130780B6010E94A607811134C060E08EE10E9488
S11307901A0761E084E491E00E94070780910D014B
S11307A08F9380910C018F9380910B018F93809193
S11307B00A018F93809109018F93809108018F938F
S11307C08BE491E09F938F938E010F5F1F4F1F93D4
S11307D00F930E941C096EE18AE00E941A0761E0EF
S11307E0C8010E9407070FB6F894DEBF0FBECDBF45
S11307F02FC020E030E040E050E4C701B6010E9481
S1130800050918162CF520E030E040E450E4C70157
S1130810B6010E94A607811109C06AE00E941A0766
S113082061E08AE591E00E94070712C026E636E6F9
S113083046E450E4C701B6010E94A607811108C02E
S11308406AE00E941A0761E08AE791E00E940707C4
S11308500E941F072C960FB6F894DEBF0FBECDBFC3
S1130860DF91CF911F910F91FF90EF90DF90CF9088
S113087008951F920F920FB60F921124CF92DF9218
S1130880EF92FF922F933F934F935F936F937F93D6
S11308908F939F93AF93BF93EF93FF93C090000107
S11308A0D0900101E0900201F090030120E030E0DB
S11308B040E85FE3C701B6010E9405098823F4F00C
S11308C020E030E040E251E4C701B6010E94AB07EA
S11308D00E941D08072E000C880B990B0E945508D6
S11308E02DEC3CEC4CEC5DE30E943A076093000174
S11308F0709301018093020190930301C090000161
S1130900D0900101E0900201F090030120E030E07A
S113091040E85FE3C701B6010E94A60788230CF0F4
S11309204AC02DEC3CEC4CE45EE3C701B6010E94E6
S1130930A60781110DC080E090E0A0E8BFE380939A
S1130940000190930101A0930201B093030133C00D
S11309502AE939E949E95EE3C701B6010E94A6071D
S113096081110DC080E090E0A0E0B0E4809300012C
S113097090930101A0930201B09303011CC02DECDC
S11309803CEC4CEC5EE360910001709101018091BC
S11309900201909103010E94A60781110CC080E01E
S11309A090E0A0E4B0E48093000190930101A0934F
S11309B00201B0930301FF91EF91BF91AF919F9119
S11309C08F917F916F915F914F913F912F91FF9004
S11309D0EF90DF90CF900F900FBE0F901F9018955F
S11309E08091A0019091A1018B33910534F401967B
S11309F09093A1018093A00108951092A1011092F7
S1130A00A00180910401909105018B33910534F488
S1130A1001969093050180930401089510920501B5
S1130A20109204018091060190910701873191058C
S1130A3034F401969093070180930601089510926F
S1130A4007011092060180910801909109018F31EC
S1130A50910534F401969093090180930801089557
S1130A6081E090E0909309018093080180910A014C
S1130A7090910B018C30910534F4019690930B0105
S1130A8080930A01089581E090E090930B01809394
S1130A900A0180910C0190910D01019690930D0132
S1130AA080930C0108951F920F920FB60F92112498
S1130AB02F933F934F935F936F937F938F939F9362
S1130AC0AF93BF93EF93FF9380919E0190919F0109
S1130AD00196883E23E0920729F090939F0180932A
S1130AE09E0106C010929F0110929E010E94F00484
S1130AF0FF91EF91BF91AF919F918F917F916F91F2
S1130B005F914F913F912F910F900FBE0F901F90C7
S1130B1018950E94DA0587E690E00E945F021AB8F1
S1130B209FEF9BB982E087B998B990E490937C00D9
S1130B309FEE90937A0010927B009EE390937E0048
S1130B409AE09093690093E09DBB84BD95BD99EFB5
S1130B5097BD80936E0078940E9408032FEF81EE76
S1130B6094E0215080409040E1F700C00000F4CFB1
S1130B702998662311F02B9A15C02B9813C0AC0149
S1130B80022E02C0559547950A94E2F740FF02C031
S1130B902C9A01C02C982D9A2D982150310978F760
S1130BA0299A089527E030E090E0E9CF60E00E94C0
S1130BB0B8050895CF93DF93219A229A239A249A11
S1130BC0259A2A9A299A83EC99E00197F1F700C0B3
S1130BD000002A988BE594E40197F1F700C0000027
S1130BE02A9A299881E20E94D60583E10E94D605BB
S1130BF086E00E94D60582EC0E94D60580E20E941F
S1130C00D60589E00E94D60580E80E94D60582E0D8
S1130C100E94D605C8EFD1E061E080E00E94B805EB
S1130C202197D1F788E00E94D6058CE00E94D60572
S1130C30DF91CF91089580E80E94D60580E40E9458
S1130C40D60510929A0310929B03E2EAF1E08AE936
S1130C5093E01192E817F907E1F70895262F2695F6
S1130C602695269590E034E5239F800D911D11244F
S1130C70442379F0FC01EE55FE4F677081E090E06B
S1130C8002C0880F991F6A95E2F79081892B8083AF
S1130C900895FC01EE55FE4F677081E090E002C0BC
S1130CA0880F991F6A95E2F7809590818923808344
S1130CB008955F926F927F928F929F92AF92BF92AC
S1130CC0CF92DF92EF92FF920F931F93CF93DF9314
S1130CD0562E262F30E04901880C991C880C991C4B
S1130CE0820E931E181419040CF05DC08901000FC4
S1130CF0111F000F111F000F111F021B130B612C7A
S1130D00A82EB12CC50180975C01AA0CBB1CAA0CAF
S1130D10BB1CA80EB91E0F2EFBE9CF2EF3E0DF2E6D
S1130D20F02D0F2EFAE9EF2EF3E0FF2EF02D2DC05B
S1130D30FE01249130E0872D652D0E940A0902C02E
S1130D40359527958A95E2F720FF0AC0F601608160
S1130D50670DF701808141E0860D0E942E0609C0CF
S1130D60F6016081670DF701808140E0860D0E94E5
S1130D702E067394872D90E080179107CCF263942C
S1130D80862D90E08815990574F410161106BCF7A9
S1130D90862D652D0E940A09E501C80FD11DC25395
S1130DA0DF4F712CC5CF80919A0391E0980F852D68
S1130DB0880F880F850D890F843518F480939A0362
S1130DC00EC010929A03EBE9F3E0808191E0980F52
S1130DD0852D880F880F880F8519890F808380914E
S1130DE09B03803320F010929A0310929B03DF91AF
S1130DF0CF911F910F91FF90EF90DF90CF90BF9014
S1130E00AF909F908F907F906F905F9008951F9305
S1130E10CF93DF93EC018881882341F0162F21962C
S1130E20612F0E94590689918111FACFDF91CF91E8
S1130E301F91089580939A0360939B0308950F93E1
S1130E401F93CF93DF9380E80E94D60580E40E942D
S1130E50D605C2EAD1E00AE913E061E089910E9473
S1130E60B805C017D107C9F7DF91CF911F910F9132
S1130E7008955058BB27AA270E9451070C94CB0809
S1130E800E94BD0838F00E94C40820F039F49F3F46
S1130E9019F426F40C94BA080EF4E095E7FB0C94CC
S1130EA0B408E92F0E94DC0858F3BA1762077307E5
S1130EB08407950720F079F4A6F50C94FE080EF447
S1130EC0E0950B2EBA2FA02D0B01B90190010C0156
S1130ED0CA01A0011124FF27591B99F0593F50F46E
S1130EE0503E68F11A16F040A22F232F342F4427C6
S1130EF0585FF3CF469537952795A795F0405395BE
S1130F00C9F77EF41F16BA0B620B730B840BBAF08D
S1130F109150A1F0FF0FBB1F661F771F881FC2F7F8
S1130F200EC0BA0F621F731F841F48F4879577950C
S1130F306795B795F7959E3F08F0B0CF9395880FC6
S1130F4008F09927EE0F9795879508950E949008C9
S1130F5008F481E008950E94BF070C94CB080E9416
S1130F60C40858F00E94BD0840F029F45F3F29F0FE
S1130F700C94B40851110C94FF080C94BA080E9404
S1130F80DC0868F39923B1F3552391F3951B550BB2
S1130F90BB27AA2762177307840738F09F5F5F4F48
S1130FA0220F331F441FAA1FA9F335D00E2E3AF087
S1130FB0E0E832D091505040E695001CCAF72BD09F
S1130FC0FE2F29D0660F771F881FBB1F26173707F0
S1130FD04807AB07B0E809F0BB0B802DBF01FF2722
S1130FE093585F4F3AF09E3F510578F00C94B40843
S1130FF00C94FF085F3FE4F3983ED4F3869577950D
S11310006795B795F7959F5FC9F7880F911D9695DA
S1131010879597F90895E1E0660F771F881FBB1F36
S1131020621773078407BA0720F0621B730B840BE3
S1131030BA0BEE1F88F7E09508950E94240868947F
S1131040B1110C94FF0808950E94E40888F09F579A
S113105098F0B92F9927B751B0F0E1F0660F771FD8
S1131060881F991F1AF0BA95C9F714C0B13091F0CE
S11310700E94FE08B1E008950C94FE08672F782FB3
S11310808827B85F39F0B93FCCF386957795679593
S1131090B395D9F73EF490958095709561957F4FFF
S11310A08F4F9F4F0895E89409C097FB3EF49095A5
S11310B08095709561957F4F8F4F9F4F9923A9F02D
S11310C0F92F96E9BB279395F695879577956795BC
S11310D0B795F111F8CFFAF4BB0F11F460FF1BC000
S11310E06F5F7F4F8F4F9F4F16C0882311F096E993
S11310F011C0772321F09EE8872F762F05C0662341
S113110071F096E8862F70E060E02AF09A95660FF9
S1131110771F881FDAF7880F9695879597F90895B2
S1131120990F0008550FAA0BE0E8FEEF16161706F4
S1131130E807F907C0F012161306E407F50798F05C
S1131140621B730B840B950B39F40A2661F0232B75
S1131150242B252B21F408950A2609F4A140A695F1
S11311608FEF811D811D089597F99F6780E870E0D6
S113117060E008959FEF80EC089500240A94161609
S1131180170618060906089500240A941216130671
S1131190140605060895092E0394000C11F48823FF
S11311A052F0BB0F40F4BF2B11F460FF04C06F5F1B
S11311B07F4F8F4F9F4F089557FD9058440F551FF1
S11311C059F05F3F71F04795880F97FB991F61F0C5
S11311D09F3F79F087950895121613061406551F3C
S11311E0F2CF4695F1DF08C0161617061806991FA8
S11311F0F1CF86957105610508940895E894BB279D
S113120066277727CB0197F908950E94900808F480
S11312108FEF0895991B79E004C0991F961708F081
S1131220961B881F7A95C9F780950895EE0FFF1FC6
S11312300590F491E02D0994AEE0B0E0E2E2F9E02B
S11312400C94DD0B0D891E8986E08C831A83098337
S11312508FEF9FE79E838D83AE01475E5F4F6F895B
S1131260788DCE0101960E943E09EF81F885E00F4A
S1131270F11F10822E96E4E00C94F90BABE0B0E081
S1131280E4E4F9E00C94CF0B6C017B018A01FC01CE
S113129017821682838181FFCCC1CE0101963C0165
S11312A0F6019381F70193FD859193FF81917F016D
S11312B0882309F4BAC1853239F493FD859193FFEB
S11312C081917F01853229F4B60190E00E94350BAB
S11312D0E7CF912C212C312CFFE1F315D8F08B3280
S11312E079F038F4803279F08332A1F4232D20612F
S11312F01DC08D3261F0803369F4232D216016C046
S1131300832D8260382EE32DE4603E2E2AC0F32D17
S1131310F8601DC037FC2DC020ED280F2A3040F0A6
S11313208E32B9F436FC81C1232D2064322E19C0CB
S113133036FE06C08AE0989E200D1124922E11C01C
S1131340EAE02E9E200D1124222EF32DF0623F2E72
S113135008C08C3621F4832D8068382E02C088366C
S113136041F4F70193FD859193FF81917F018111F0
S1131370B3CF982F9F7D9554933028F40C5F1F4F63
S11313809FE399830DC0833631F0833771F0833541
S113139009F059C021C0F801808189830E5F1F4F75
S11313A088248394912C530113C02801F2E04F0E3A
S11313B0511CF801A080B18036FE03C0692D70E095
S11313C002C06FEF7FEFC5010E942A0B4C0182011E
S11313D0F32DFF773F2E16C0280122E0420E511C48
S11313E0F801A080B18036FE03C0692D70E002C010
S11313F06FEF7FEFC5010E941F0B4C01F32DF068C6
S11314003F2E820133FC1BC0822D90E08816990682
S1131410B0F4B60180E290E00E94350B2A94F4CF38
S1131420F50137FC859137FE81915F01B60190E0AB
S11314300E94350B21102A9421E0821A910881140C
S1131440910471F7E8C0843611F0893641F5F8014A
S113145037FE07C060817181828193810C5F1F4FC9
S113146008C060817181072E000C880B990B0E5FF8
S11314701F4FF32DFF763F2E97FF09C0909580955F
S1131480709561957F4F8F4F9F4FF0683F2E2AE0F4
S113149030E0A3010E94710B882E861845C0853761
S11314A031F4232D2F7EB22E2AE030E025C0932D77
S11314B0997FB92E8F36C1F018F4883579F0B5C00C
S11314C0803719F0883721F0B0C0E92FE061BE2ED3
S11314D0B4FE0DC0FB2DF460BF2E09C034FE0AC05B
S11314E0292F2660B22E06C028E030E005C020E196
S11314F030E002C020E132E0F801B7FE07C06081AD
S11315007181828193810C5F1F4F06C0608171815C
S113151080E090E00E5F1F4FA3010E94710B882EA4
S11315208618FB2DFF773F2E36FE0DC0232D2E7F10
S1131530A22E891458F434FE0BC032FC09C0832D4A
S11315408E7EA82E05C0B82CA32C03C0B82C01C0D5
S1131550B92CA4FE0FC0FE01E80DF11D808180337B
S113156021F49A2D997EA92E09C0A2FE06C0B39437
S1131570B39404C08A2D867809F0B394A3FC11C0F7
S1131580A0FE06C0B21488F4280C922C9B180EC03E
S1131590B21460F4B60180E290E00E94350BB3947B
S11315A0F7CFB21418F42B1802C0982C212CA4FEE7
S11315B010C0B60180E390E00E94350BA2FE17C074
S11315C0A1FC03C088E790E002C088E590E0B60182
S11315D00CC08A2D867859F0A1FE02C08BE201C0AE
S11315E080E2A7FC8DE2B60190E00E94350B8914DD
S11315F038F4B60180E390E00E94350B9A94F7CF5B
S11316008A94F301E80DF11D8081B60190E00E94F7
S1131610350B8110F5CF222009F442CEB60180E2C9
S113162090E00E94350B2A94F6CFF60186819781CB
S113163002C08FEF9FEF2B96E2E10C94EB0BFC01C1
S11316400590615070400110D8F7809590958E0FE9
S11316509F1F0895FC016150704001900110D8F75C
S1131660809590958E0F9F1F08950F931F93CF938E
S1131670DF93FB01238121FD03C08FEF9FEF2CC07B
S113168022FF16C0468157812481358142175307B2
S113169044F4A081B1819D012F5F3F4F31832083AA
S11316A08C93268137812F5F3F4F3783268314C065
S11316B08B01EC01FB010084F185E02D0995892B58
S11316C0E1F6D80116968D919C911797019617967D
S11316D09C938E931697CE01DF91CF911F910F911A
S11316E00895FA01AA27283051F1203181F1E894B4
S11316F06F936E7F6E5F7F4F8F4F9F4FAF4FB1E001
S11317003ED0B4E03CD0670F781F891F9A1FA11DFB
S1131710680F791F8A1F911DA11D6A0F711D811DFC
S1131720911DA11D20D009F468943F912AE0269FC1
S113173011243019305D3193DEF6CF010895462F20
S11317404770405D4193B3E00FD0C9F7F6CF462F01
S11317504F70405D4A3318F0495D31FD405241936A
S113176002D0A9F7EACFB4E0A69597958795779527
S11317706795BA95C9F700976105710508959B01AE
S1131780AC010A2E06945795479537952795BA9537
S1131790C9F7620F731F841F951FA01D08952F9210
S11317A03F924F925F926F927F928F929F92AF92ED
S11317B0BF92CF92DF92EF92FF920F931F93CF933A
S11317C0DF93CDB7DEB7CA1BDB0B0FB6F894DEBFD1
S11317D00FBECDBF09942A88398848885F846E84F7
S11317E07D848C849B84AA84B984C884DF80EE8041
S11317F0FD800C811B81AA81B981CE0FD11D0FB64A
S1131800F894DEBF0FBECDBFED010895F894FFCF6D
S1131810CDCCCC3D0A00060019000300DF0741705F
S11318206D00486F726C6F67650043616C656E6430
S11318307269657200546578746500486F726169F5
S113184072653A2000253032693A253032693A25EA
S113185030326900446174653A2000253032692FC2
S1131860253032692F2530346900416C696D656E0D
S1131870746172206761746F7320616E7465732084
S1131880646520646F726D697200436F6E74696E73
S1131890756172206C65697475726120736F627210
S10F18A06520726F626F74696361000060
S9030000FC
